:1000000085C100000C941F260C944A260C9475267A
:100010000C94A0260C94CB260C94F6260C94212745
:100020000C944C27A4C10000A2C10000A0C1000094
:100030009EC100009CC100009AC1000098C1000050
:1000400096C1000094C1000092C1000090C1000060
:100050008EC100008CC100008AC100000C9477277B
:1000600086C100000C94732B0C94A92B80C1000056
:100070007EC100007CC100007AC1000078C1000090
:1000800076C1000074C1000072C1000070C10000A0
:100090000C94FF2B0C94352C6AC1000068C1000041
:1000A00066C1000064C1000062C1000060C10000C0
:1000B0005EC100005CC100005AC1000058C10000D0
:1000C00056C1000054C100000C946E160C948B2C89
:1000D0000C94C12C4CC100000C94172D0C944D2D88
:1000E00046C10000001D3A2774694E53E8F5D2CF8F
:1000F0009C81A6BBCDD0F7EAB9A4839E25381F0208
:10010000514C6B76879ABDA0F3EEC9D46F725548F7
:100110001B06213C4A57706D3E230419A2BF9885E7
:10012000D6CBECF1130E2934677A5D40FBE6C1DCD7
:100130008F92B5A8DEC3E4F9AAB7908D362B0C11C7
:10014000425F78659489AEB3E0FDDAC77C61465BB7
:100150000815322F5944637E2D30170AB1AC8B96A7
:10016000C5D8FFE2263B1C01524F6875CED3F4E997
:10017000BAA7809DEBF6D1CC9F82A5B8031E392487
:10018000776A4D50A1BC9B86D5C8EFF24954736E77
:100190003D20071A6C71564B1805223F8499BEA367
:1001A000F0EDCAD735280F12415C7B66DDC0E7FA57
:1001B000A9B4938EF8E5C2DF8C91B6AB100D2A3747
:1001C00064795E43B2AF8895C6DBFCE15A47607D37
:1001D0002E3314097F6245580B16312C978AADB027
:1001E000E3FED9C400000A0B02090C0D0E08070338
:1001F00004010000000000000000000000000000FA
:1002000000000000000000000000000000000000EE
:1002100012111000000000000000000000000000AB
:100220000000000000000000000001021020200873
:100230000810204010204080020102010804020141
:1002400001020408102040808040201008040201B0
:100250008004020180402010080402010804020109
:100260000102040810204080010204081020408090
:1002700005050505070508080808020202020A0A22
:100280000808040404040101010101010101030340
:10029000030303030303040707070C0C0C0C0C0CEB
:1002A0000C0C0202020206060606060606060B0BE8
:1002B0000B0B0B0B0B0B000020002300260029006A
:1002C0002C002F003200000100000301060109018B
:1002D00000002200250028002B002E0031003400F1
:1002E00002010000050108010B01000021002400AB
:1002F00027002A002D003000330001010000040116
:1003000007010A01D22B5E2CEA2C762D11241FBE88
:10031000CFEFD1E2DEBFCDBF00E00CBF14E0A0E024
:10032000B2E0E8EFFEE500E00BBF02C007900D92DF
:10033000AE3CB107D9F72AE0AEECB4E001C01D92A3
:10034000AD35B207E1F711E0C6E8D1E000E006C044
:1003500021970109802FFE010E94062EC238D10785
:1003600080E00807A9F70E949A220C947A2F48CEC1
:10037000611102C00C94B8296130E1F362E0FACF58
:10038000662319F061E00C94F42960E0FCCFCF9271
:10039000DF92EF92FF92CF93882351F16A017B01A4
:1003A000CFEFC80F20E030E0A901CB01B6010E94D9
:1003B0009B2387FF11C0C701B60190580E940C24EF
:1003C0009B01AC016C2F70E090E080E0CF91FF903A
:1003D000EF90DF90CF90B2C0C701B6010E94072412
:1003E0008C2FCF91FF90EF90DF90CF900C947E28D0
:1003F000CF91FF90EF90DF90CF9008950F931F93D0
:100400008B019C0183E036952795179507958A9572
:10041000D1F702531B4F462F477021E030E0F9011E
:1004200002C0EE0FFF1F4A95E2F7AF01F8012081ED
:100430002423CB010196211102C090E080E01F919E
:100440000F9108950F931F938B019C0183E03695C4
:100450002795179507958A95D1F7677081E090E009
:1004600001C0880F6A95EAF7F801E253FB4F20813B
:10047000452B31F48095822380831F910F9108953D
:10048000822BFACF2F923F924F925F926F927F9280
:100490008F929F92AF92BF92CF92DF92EF92FF9294
:1004A0000F931F93CF93DF93D62EC72E782E692EEE
:1004B00049015A01280161E08D2D0E94B829CD2DF6
:1004C000DC2D8E010F5F1F4FA8016D2D7C2D872D18
:1004D000962DB8DF20E030E0A901C201B7010E94EB
:1004E0003D25181664F4C201B7010E940C242B01AB
:1004F000C501B4010E940C24A201CE0123D0C80181
:10050000DF91CF911F910F91FF90EF90DF90CF90EF
:10051000BF90AF909F908F907F906F905F904F9023
:100520003F902F900895882341F08150682F70E00C
:1005300090E080E050E040E085CF0895862FB9013B
:100540000C947E289C01FC01EC51FE4FE491E1509B
:10055000E231E0F4F0E08827EF54FD4F8F4F0C9428
:10056000062EC302CA02CD02E402F902C6020E033D
:100570001A031E0335034A035F0376038B03C60287
:10058000A003B703CC0384B5806884BD60E0822FEC
:100590000C94F42984B58062F8CF809180008C7F20
:1005A00082608093800080918100807E8061682BD2
:1005B0006093810050938700409386008091800073
:1005C000806880938000E2CF809180008C7F826081
:1005D0008093800080918100807E8061682B609391
:1005E0008100509387004093860080918000806254
:1005F000E8CF809180008C7F826080938000809122
:100600008100807E8061682B609381005093870019
:1006100040938600809180008860D3CF8091B000A5
:1006200080688093B0008091B100887F682B6093D0
:10063000B100ACCF8091B0008062F3CF8091900088
:100640008C7F82608093900080919100807E806199
:10065000682B60939100509397004093960080918F
:10066000900080688093900091CF809190008C7F63
:1006700082608093900080919100807E8061682BE1
:100680006093910050939700409396008091900062
:100690008062E8CF809190008C7F82608093900090
:1006A00080919100807E8061682B609391005093CF
:1006B000970040939600809190008860D3CF8091FE
:1006C000A0008C7F82608093A0008091A100807E3A
:1006D0008061682B6093A1005093A7004093A6000F
:1006E0008091A00080688093A00050CF8091A000EE
:1006F0008C7F82608093A0008091A100807E8061C9
:10070000682B6093A1005093A7004093A6008091AE
:10071000A0008062E8CF8091A0008C7F82608093EF
:10072000A0008091A100807E8061682B6093A10071
:100730005093A7004093A6008091A0008860D3CF7B
:10074000809120018C7F8260809320018091210123
:10075000807E8061682B6093210150932701409334
:100760002601809120018068809320010FCF809125
:1007700020018C7F82608093200180912101807E06
:100780008061682B609321015093270140932601DB
:10079000809120018062E8CF809120018C7F82606F
:1007A0008093200180912101807E8061682B60937D
:1007B00021015093270140932601809120018860F8
:1007C000D3CFCF92DF92EF92FF926B017C019F77A4
:1007D00020E030E040E859E50E949B2387FF2BC0D2
:1007E00020E030E040E05FE3C701B6010E943D2514
:1007F00087FD0EC020E030E040E05FE3C701B601B6
:100800000E942423FF90EF90DF90CF900C947524EA
:1008100020E030E040E05FEBC701B6010E943D25DB
:10082000181684F420E030E0A901C701B6010E9447
:1008300041256B017C01C701B601FF90EF90DF906D
:10084000CF90089520E030E040E05FE3C701B601BB
:100850000E942323FF90EF90DF90CF900C94882389
:100860006F927F928F929F92AF92BF92CF92DF92C0
:10087000EF92FF920F931F93CF93DF9360919202B9
:100880007091930280919402909195029ADF6B018E
:100890007C0120E030E040E853E40E949B236FEFAE
:1008A00087FF0EC020E030E0A901C701B6010E9419
:1008B0003D2560E087FD04C0C701B6010E940C24FD
:1008C00084E05EDD4EE45AE066E678E082E698E099
:1008D0000E94941500919C0810919D08F801818157
:1008E0009281A381B481980120533F4F5901E801BF
:1008F00028960197A105B105B1F081E090E0A0E054
:10090000B0E081839283A383B4838583F9018081DE
:100910009181A281B381FE0181939193A193B193BF
:10092000EA15FB05C9F76091660870916708809128
:10093000680890916908C12CD12C76016880798073
:100940008A809B806993799389939993FE01E853F8
:10095000FF4F20813181428153810E9441259B01BB
:10096000AC01C701B6010E9424236B017C01C301C5
:10097000D401BC01CD01AC16BD0601F7F801E45667
:10098000FE4F20813181428153810E944125A70180
:1009900096010E94242360936E0870936F088093E1
:1009A0007008909371088090150590901605A0909E
:1009B0001705B0901805A5019401609196027091F9
:1009C000970280919802909199020E943D251816F5
:1009D0000CF0EAC0C0909A02D0909B02E0909C027A
:1009E000F0909D02A50194016091A2027091A30272
:1009F0008091A4029091A5020E943D2518160CF04A
:100A0000DCC06091A6027091A7028091A80290912B
:100A1000A902A70196010E94242360936A0870939B
:100A20006B0880936C0890936D0866E070E080E03E
:100A300090E0E4DCEC0190934D0A80934C0AC09066
:100A40006A08D0906B08E0906C08F0906D0820E088
:100A500030E04FE753E4C701B6010E949B2387FFB4
:100A6000B5C020E030E0A901C701B6010E943D25D4
:100A700018161CF0C12CD12C7601B701A601CE01AD
:100A800086DC4EE45AE066E678E082E698E00E9472
:100A9000081681E090E00E947C1440911505509169
:100AA0001605609117057091180590E080E00E948E
:100AB00078148090210590902205A0902305B09095
:100AC000240520E030E040E85FEBC501B4010E945E
:100AD0009B23882331F1C0901505D0901605E09036
:100AE0001705F0901805A7019601C501B4010E94F1
:100AF00023234B015C0120E030E040E054E3C701D8
:100B0000B6010E9441259B01AC01C501B4010E94C0
:100B10003D25181634F082EC92E090930005809306
:100B2000FF0480912505882331F082EC92E09093B8
:100B300000058093FF046091190570911A0580915A
:100B40001B0590911C056F5F7F4F8F4F9F4F6093E8
:100B5000190570931A0580931B0590931C050E943C
:100B600038249B01AC0160911D0570911E05809198
:100B70001F05909120050E944125609315057093F3
:100B800016058093170590931805DF91CF911F915B
:100B90000F91FF90EF90DF90CF90BF90AF909F901C
:100BA0008F907F906F900895C0909E02D0909F028A
:100BB000E090A002F090A10215CF6091AA0270917E
:100BC000AB028091AC029091AD0223CFC12CD12C0D
:100BD0008FE7E82E83E4F82E50CFCF92DF92EF928A
:100BE000FF920F931F93CF938AE097EDAFE1B1E4AB
:100BF0008093210590932205A0932305B0932405AB
:100C00008FE892ECA5EFBCE380931D0590931E0541
:100C1000A0931F05B093200582E39DEEA5ECB1EAF9
:100C20008093030590930405A0930505B0930605F2
:100C300082EB97E3AAE8BEE480930705909308054A
:100C4000A0930905B0930A058FEB9DE5A8EBBBE3E4
:100C500080930B0590930C05A0930D05B0930E05A2
:100C60008FE799E2ABE1B8E680930F05909310050A
:100C7000A0931105B093120583EF94E090930205C1
:100C8000809301058BEE94E09093F4048093F30439
:100C900082EA93E09093EC048093EB049093EE044B
:100CA0008093ED049093F0048093EF049093F2040A
:100CB0008093F10483E195E09093F8048093F70426
:100CC00083E095E09093F6048093F50485E195E048
:100CD0009093FA048093F904E1EEF4E08AE0DF01F6
:100CE0001D928A95E9F787ED94E09093140580931F
:100CF000130581E190E09093D8048093D70480E7B6
:100D000092E09093DA048093D9048EE492E0909379
:100D1000DC048093DB0482E192E09093DE04809314
:100D2000DD0486E092E09093E0048093DF048EE49B
:100D30009AE00E942E1510924E0A10924F0A1092BD
:100D4000500A1092510A10923E0AC12CD12C760101
:100D5000C394C0923F0AD092400AE092410AF092B6
:100D6000420A61E084E004DB81E08093430A109250
:100D70007208C0927308D0927408E0927508F092DD
:100D8000760810929F081092A0081092A108109265
:100D9000A20810926E0910926F09109270091092B9
:100DA0007109E6EDF2E0A2E7B9E04191519161915C
:100DB00071914D935D936D937D9383E0E23AF807D3
:100DC000A1F710929E088EE998E090939D08809379
:100DD0009C0881E090E0A0E0B0E0809398089093B8
:100DE0009908A0939A08B0939B08C1E0C093770834
:100DF0001092460A10924B0A8093470A9093480A31
:100E0000A093490AB0934A0AE12CF12C8701A8016A
:100E1000970166E070E080E090E034DB90934D0A4B
:100E200080934C0AC0934B0ACF911F910F91FF9072
:100E3000EF90DF90CF90089580913E0A811103C01A
:100E400081E080933E0A80917208811132C081E076
:100E5000809372088091730890917408A09175082E
:100E6000B09176080197A105B10519F58091770831
:100E70008823F9F0E0919C08F0919D08818192818E
:100E8000A381B4810197A105B10541F482E090E00E
:100E9000A0E0B0E081839283A383B4838FEF9FEFC0
:100EA000DC018093980890939908A0939A08B093D6
:100EB0009B0880919E0881111BC081E080939E0851
:100EC00080919F089091A008A091A108B091A208DC
:100ED0000197A105B10561F482E090E0A0E0B0E0E7
:100EE00080939F089093A008A093A108B093A208B4
:100EF0008091460A81112AC081E08093460A809140
:100F0000470A9091480AA091490AB0914A0A01976C
:100F1000A105B105D9F480914B0A8823B9F066E0A8
:100F200070E080E090E06ADA90934D0A80934C0A7A
:100F300040E050E0BA012BDA66E070E080E090E03B
:100F40005DDA90934D0A80934C0AEDCA0895EF92B2
:100F5000FF920F931F93CF93DF93EA01F901DC0116
:100F60001496ED90FC90159712964D915C91139705
:100F70004E0D5F1D2881398118960D911C9119978E
:100F80000217130730F00D911C911197012B09F4F2
:100F900041C08A01021B130BDC0118968D919C91B4
:100FA0008E199F09800F911F86179707DCF1C901E1
:100FB000860F971F8417950778F4718360833383B6
:100FC0002283158214821782168288819981680F84
:100FD000791F7983688316C011830083338322834A
:100FE000601B710B7583648390E080E01616170612
:100FF00014F49E2D8F2D96838783D701A60FB71FDC
:10100000B983A88380E0DF91CF911F910F91FF906A
:10101000EF90089518968D919C91821B930B8617E3
:1010200097075CF681E0EFCFCF92DF92EF92FF92CD
:10103000CF93DF936B0184E4869FE001879FD00DFF
:101040001124CA5DDA4F8AA99BA9009721F00E945A
:10105000D82E1BAA1AAA84E48C9DF0018D9DF00D58
:101060001124EA5DFA4F86A997A9009711F00E9412
:10107000D82E84E48C9DF0018D9DF00D1124EA5D45
:10108000FA4F138A128A168A178A108E118E128EC0
:10109000138E148E158E168E178E10A211A281E05B
:1010A00090E093A382A315A214A216A217A210A6E1
:1010B00011A613A612A615A614A616A617A610AA60
:1010C00011AA13AA12AA15AA14AA17AA16AA11AE2F
:1010D00010AE12AE13AE14AE15AEDF01DE961D9249
:1010E0001D921D921C921397EE5BFF4F118210828E
:1010F000DF91CF91FF90EF90DF90CF900895CF9345
:10110000DF93FB01DC016D917C91DB011696CD91A3
:10111000DC918081918123E0880F991F2A95E1F766
:10112000AA81BB81A80FB91F8D919C91119724852D
:101130003585220F331FEB016A817B81EB01C20FE2
:10114000D31F0990D881C02D14962D913C9161E058
:1011500070E0232B11F062E070E0C69F9001C79F02
:10116000300DD69F300D1124A085B1852A9FB00186
:101170002B9F700D3A9F700D1124A481B5812A9F79
:10118000F0012B9FF00D3A9FF00D11248E0F9F1F41
:10119000FA019183808373836283DF91CF910895F5
:1011A0002F923F924F925F926F927F928F929F9277
:1011B000AF92BF92CF92DF92EF92FF920F931F9365
:1011C000CF93DF9300D000D0CDB7DEB7DC0114960B
:1011D000ED91FC910190F081E02D808591859A83BD
:1011E0008983A281B381BC83AB83FB018190919001
:1011F000A190B190C12CD12C7601C814D904EA0475
:10120000FB04CCF026960FB6F894DEBF0FBECDBF20
:10121000DF91CF911F910F91FF90EF90DF90CF90D2
:10122000BF90AF909F908F907F906F905F904F9006
:101230003F902F9008954480558066807780408548
:10124000518562857385CF0140969E838D83A081F1
:10125000B1819D0183E0220F331F8A95E1F7A981B7
:10126000BA8112968D919C91D901A80FB91F2D902A
:101270003C9011970484F585E02DEE0FFF1F8B81C4
:101280009C81E80FF91F0190F081E02D14968D915B
:101290009C91892B41F581E090E0E89F9001E99FC6
:1012A000300DF89F300D1124249F8001259F100DD3
:1012B000349F100D1124249DC001259D900D349D57
:1012C000900D1124A8016D817E81820D931D0E94D5
:1012D000612FED81FE81E00FF11F9FEFC91AD90A3E
:1012E000E90AF90A8ACF82E090E0D7CFCF93DF9363
:1012F000DB01A255BD4F2C91222369F024E4269FE7
:10130000F001279FF00D1124EA5DFA4FEF011992C9
:101310002A95E9F71C9224E4269FF001279FF00DFF
:101320001124EA5DFA4F1482158216821782118603
:10133000108613861286118A108A17861686DF9108
:10134000CF9172CE2F923F924F925F926F927F9287
:101350008F929F92AF92BF92CF92DF92EF92FF92C5
:101360000F931F93CF93DF9300D000D01F921F9253
:10137000CDB7DEB724E4269FF001279FF00D11249E
:10138000EA5DFA4F0481158126813781012B022BFA
:10139000032B09F4B7C02A016B017C0110E000E0C7
:1013A000812C912C54013F019F01285F3F4F3C83CA
:1013B0002B83CF0104969E838D83AB81BC818D915D
:1013C0009C91ED81FE8140815181628173818416FF
:1013D0009506A606B706E4F10E94D82ED3011A9608
:1013E0008D919C91892B09F07EC084E48C9DD00165
:1013F0008D9DB00D1124AA5DBA4FBC83AB8350966E
:101400008D919C910E94D82EEB81FC8186859785D9
:101410000E94D82EC701B60107DEC701B601289683
:101420000FB6F894DEBF0FBECDBFDF91CF911F91F5
:101430000F91FF90EF90DF90CF90BF90AF909F9073
:101440008F907F906F905F904F903F902F904ECFF6
:10145000FC01E00FF11F92819983A381AA839F83EE
:10146000A887312C212C2414350464F089819A81B9
:101470000E94D82EEFEF8E1A9E0AAE0ABE0A0C5FAB
:101480001F4F9BCFAF81B885ED91FD91B887AF839A
:10149000309759F0848195810E94D82EEF81F8858C
:1014A0003297808191810E94D82EBFEF2B1A3B0A80
:1014B000DACF800F911FFC01848195810E94D82E84
:1014C0002B813C812F5F3F4F3C832B83025F1F4F5B
:1014D000F501808191812B813C81241535054CF3E8
:1014E0000E94D82E82CF10E000E01C821B8224E4F0
:1014F0002C9DC0012D9D900D1124DC01A05DBA4FE3
:101500005D01E6CF28960FB6F894DEBF0FBECDBFC3
:10151000DF91CF911F910F91FF90EF90DF90CF90CF
:10152000BF90AF909F908F907F906F905F904F9003
:101530003F902F90089524E4269FF001279FF00DFF
:101540001124EA5DFA4F828993890497029758F42F
:1015500085E090E0938B828B8FEF9FEFDC01828F91
:10156000938FA48FB58F08952F923F924F925F92E1
:101570006F927F928F929F92AF92BF92CF92DF92A3
:10158000EF92FF920F931F93CF93DF93CDB7DEB708
:10159000AA970FB6F894DEBF0FBECDBF9AA389A35A
:1015A0007E8B6D8B1A01098B1A8B2B8B3C8B84E401
:1015B00029893A89829F6001839FD00C112486017A
:1015C0000A5D1A4F89899A89AB89BC89F8018083A1
:1015D0009183A283B383AB01BC01CD01B3DED601FD
:1015E000A65DBA4F84E0F10101900D928A95E1F772
:1015F000F4E02F0E311C64E070E0D80114968D9158
:101600009C910E94222EF80191878087892B09F0F6
:10161000F5C04D895E8969897A898B899C8992DEBA
:1016200081E0AA960FB6F894DEBF0FBECDBFDF9162
:10163000CF911F910F91FF90EF90DF90CF90BF90CF
:10164000AF909F908F907F906F905F904F903F9062
:101650002F900895A9A5BAA58D919C91E98DFA8D39
:10166000E80FF91FF88FEF8BD1018D919C91880FB6
:10167000991FA9A1BAA1ED91FC91E80FF91F8081F2
:101680009181EF89F88D91838083D10114962D91FA
:101690003D914D915C9117972BA33CA34DA35EA365
:1016A00062E070E08D899E890E94222EEF89F88D7C
:1016B00093838283892B09F4ACCFF8E02F0E311C81
:1016C000412C512C32012BA13CA14DA15EA142160F
:1016D0005306640675069CF02B8D3C8D4D8D5E8DFA
:1016E0002F5F3F4F4F4F5F4F2B8F3C8F4D8F5E8F44
:1016F000498D5A8D4C5F5F4F5A8F498F90C0610161
:1017000024E0C20ED11CD101ED90FC90EE0CFF1C28
:10171000EF89F88D82819381E80EF91E68E070E010
:1017200081E090E00E94222E8C01D7018D939C9342
:10173000892B09F46ECF84E0F601D80101900D9257
:101740008A95E1F7B8E02B0E311CF8018081918178
:10175000A281B381181619061A061B06DCF464E090
:1017600070E00E94222ED80115969C938E931497B8
:10177000892B09F44ECFD12CC12C812C912C5401F2
:10178000F80180819181A281B38188169906AA0609
:10179000BB0634F0FFEF4F1A5F0A6F0A7F0A93CF40
:1017A000F801E480F580EC0CFD1C80E1F101DE0124
:1017B000119601900D928A95E1F7F0E12F0E311C00
:1017C000A701BE016F5F7F4FA9A1BAA114968D91A9
:1017D0009C9195DCF80186819781D70112962D9115
:1017E0003C91820F931F97838683BFEF8B1A9B0ACE
:1017F000AB0ABB0AE4E0CE0ED11CC2CF1A8E198E02
:101800001B8E1C8E1D8E1E8E18A30F8FA8014C5F81
:101810005F4F58A74FA3C80108969AA789A7EFA1C1
:10182000F8A580819181A281B3812B8D3C8D4D8D56
:101830005E8D281739074A075B070CF40BCF6EE063
:1018400070E08D899E890E94222EAF8DB8A11B96D3
:101850009C938E931A97B12CA12CD12CC12CF12CD6
:10186000E12C24E4E989FA892E9FC0012F9F900D75
:1018700011249C01205D3A4F388F2F8B882483944C
:10188000912C4D895E89C416D50654F184E4A9894A
:10189000BA898A9F80018B9F100D11240A5D1A4F0F
:1018A000F80115861486C70133E0880F991F3A9511
:1018B000E1F70E943C2ED80151969C938E9350974D
:1018C000892B09F4A6CEC701880F991F0E943C2ED0
:1018D000F80197878687892B09F49BCE80E0A1CEFB
:1018E000D1014D905D906D907D901D0177FC91CE62
:1018F000EF89F88D008111810A0D1B1DD801119609
:101900009C928E92411451046104710429F1C20128
:101910000E943C2EF80195838483892B09F479CEAB
:10192000F8015382428284819581978386839187CF
:1019300080871386128681E090E045284628472854
:1019400011F490E080E0E80EF91EFFEFCF1ADF0AF5
:101950002EE0A20EB11C95CF15961C921E921497E4
:10196000DFCF2F923F924F925F926F927F928F9232
:101970009F92AF92BF92CF92DF92EF92FF920F931E
:101980001F93CF93DF93CDB7DEB76A970FB6F89466
:10199000DEBF0FBECDBF9E8B8D8B49015A0184E403
:1019A000829F7001839FF00C112497012A5D3A4FAA
:1019B0006901FB0180819181F901958B848BD701AD
:1019C000A45CBA4FFB01349684E001900D928A9595
:1019D000E1F7D701A05CBA4FFB01389684E0019093
:1019E0000D928A95E1F7D701AC5BBA4FFB013C96AB
:1019F00084E001900D928A95E1F7D701AC5ABA4F75
:101A0000FB01709684E001900D928A95E1F78B01BD
:101A10000C5E1F4FF90186A597A5A0A9B1A91816BC
:101A20001906DCF5880F991F880F991F0E943C2E1C
:101A3000F60193AB82AB892B09F4D3C0312C212C56
:101A4000412C512C32019601225D3F4F388F2F8B54
:101A5000C601C2969A8F898FF496FC8BEB8BB301EB
:101A6000A2012FEF421A520A620A720AEF89F88D18
:101A700080819181A281B381481759076A077B074A
:101A80000CF47BC0F60184A995A90E943C2EF601B6
:101A900097AB86AB892B09F4A4C0F80180819181B2
:101AA000A281B38124E4289DF001299DF00D112429
:101AB000EA5DFA4FAC01BD014D7F21E030E0452BDE
:101AC000462B472B11F030E020E033A322A324E47F
:101AD000289DF001299DF00D1124EA5DFA4F019730
:101AE000A109B10921E030E00297A105B10510F08C
:101AF00030E020E035A324A3D701A45BBA4FF8015E
:101B0000349684E001900D928A95E1F784E4889DF3
:101B1000F001899DF00D1124EA5DFA4F868D978DB5
:101B2000A0A1B1A1B7FF58C0B095A095909581959F
:101B30009F4FAF4FBF4F82AF93AFA4AFB5AF168EDD
:101B4000178E10A211A280E06A960FB6F894DEBF3D
:101B50000FBECDBFDF91CF911F910F91FF90EF90FE
:101B6000DF90CF90BF90AF909F908F907F906F90BD
:101B70005F904F903F902F900895E98DFA8D80816E
:101B800091819C01220D331D3A8B298B80E1F80154
:101B9000DE01119601900D928A95E1F7005F1F4FCB
:101BA00049895A89BE016F5F7F4FED89FE89848123
:101BB0009581A5DAEB89FC8980819181E989FA898F
:101BC00022813381820F931FEB89FC89918380836B
:101BD000F4E02F0E311C43CF12AE13AE14AE15AE8F
:101BE000B2CFC501B40120DA81E0AECFCF92DF924F
:101BF000EF92FF92CF93DF931092AE0524E4269FDD
:101C0000F001279FF00D1124EA5DFA4F15A614A6E6
:101C100030E020E0D12CC12CDF011A96C1E0D0E0E9
:101C2000C416D506F4F024E4269FF001279FF00D9A
:101C30001124EA5DFA4F13A612A611AE10AEDF0111
:101C4000DE961D921D921D921C92139782E090E0E9
:101C5000938B828BDF91CF91FF90EF90DF90CF90AD
:101C60000895ED91FC911197E20FF31FE280F3804C
:101C70001E141F0454F4E480F580F782E682F18696
:101C8000E08613861286D183C083EFEFCE1ADE0A78
:101C9000225F3F4FC5CF24E4269FF001279FF00D20
:101CA0001124EA5DFA4F138A128A4CCB24E4269F52
:101CB000F001279FF00D1124EA5DFA4F8289938984
:101CC00081309105C8F08530910518F0059769F0CD
:101CD00008958FEF9FEFDC01828F938FA48FB58FD4
:101CE00085E090E0938B828B08958FEF9FEFDC016E
:101CF000828F938FA48FB58F089524E4249FD00101
:101D0000259FB00D1124AA5DBA4F2EE0AC01249F8F
:101D1000C001259F900D11241A96ED91FC91E80FBA
:101D2000F91F81E08093AE05828593859187808736
:101D3000408551852681378181E090E04217530725
:101D400011F090E080E09183808308952F923F927C
:101D50004F925F926F927F928F929F92AF92BF92BB
:101D6000CF92DF92EF92FF920F931F93CF93DF9367
:101D7000CDB7DEB7C055D1090FB6F894DEBF0FBEA0
:101D8000CDBF9EAF8DAF4BA75CA76DA77EA76801A7
:101D9000790184E4809FF001819FF00D1124EA5DB8
:101DA000FA4F2285338523963FAF2EAF2397828942
:101DB0009389029761F486A597A5A0A9B1A9892B5B
:101DC0008A2B8B2BC9F584E090E0938B828B84E483
:101DD0008C9DF0018D9DF00D1124EA5DFA4F8289F2
:101DE00093898230910509F037C282AD93ADA4ADDD
:101DF000B5AD22242394312C181619061A061B0699
:101E00000CF42FC2C05BDF4F0FB6F894DEBF0FBEDD
:101E1000CDBFDF91CF911F910F91FF90EF90DF9099
:101E2000CF90BF90AF909F908F907F906F905F907A
:101E30004F903F902F900895848995894DAD5EAD68
:101E40008417950721F606A917A918AE1FAA1BAA81
:101E50001CAA1DAA1EAA1F01CF018E9627969FAF0E
:101E60008EAF2797DF01D2962996BFAFAEAF2997E5
:101E7000F8962B96FFAFEEAF2B9791012A5D3F4F5F
:101E80002D963FAF2EAF2D97A1014E5D5F4F2F9640
:101E90005FAF4EAF2F970A9761969FAF8EAF619756
:101EA0002796EEADFFAD279780819181A281B38106
:101EB0002BA93CA94DA95EA9281739074A075B073A
:101EC00044F081E090E0D101D9969C938E93D8970D
:101ED0007ECF2996AEADBFAD2997ED91FC912FA98C
:101EE00038ADE20FF31F428153815AAF49AF5081A1
:101EF0005FAF818121968FAF21972B96AEADBFAD9D
:101F00002B978D919C91892B21F12D96EEADFFADF4
:101F10002D9780809180A280B3801AAB09AB5FA718
:101F20002196FFAD2197F8AB29AD3AAD36952795AF
:101F30003695279525963FAF2EAF25971CAE1BAE45
:101F40002596AEADBFAD2597EBADFCADEA17FB070F
:101F50000CF149AD5AAD6FAD21967FAD2197C80107
:101F60000E94612F89AD9AAD8C7F080F191F2BA994
:101F70003CA94DA95EA92F5F3F4F4F4F5F4F2BAB41
:101F80003CAB4DAB5EAB4FA958AD4C5F5F4F58AF0C
:101F90004FAB86CF2F96AEADBFAD2F978D919C9155
:101FA000892B71F1EFA5F8A9408051806280738080
:101FB000A3019201C501B4010E949B23181664F08D
:101FC000A9A9BAA92D913D914D915C91C501B4018A
:101FD0000E943D251816BCF1A3019201C501B40170
:101FE0000E949B2387FF0CC0E9A9FAA920813181B7
:101FF00042815381C501B4010E949B23882319F1BA
:102000006196AEADBFAD61978D919C91892B09F41E
:1020100045C0EFA5F8A94080518062807380A3017C
:102020009201C501B4010E943D2518161CF5A9A90D
:10203000BAA92D913D914D915C91C501B4010E94C9
:102040009B2318165CF184E48C9DF0018D9DF00DAE
:102050001124EA5DFA4F868D978DA0A1B1A1892B3D
:102060008A2B8B2B69F183E090E0938B828B81E04C
:1020700090E02CC0A3019201C501B4010E949B23F2
:1020800081110CC0E9A9FAA92081318142815381D3
:10209000C501B4010E949B2387FDD5CF2BAD3CAD7C
:1020A0002F5F3F4F3CAF2BAF49A95AA94C5F5F4F01
:1020B0005AAB49AB8FA598A9049698AB8FA740CF90
:1020C00084E090E0938B828B86AD97AD93A782A737
:1020D0007ECEEBADFCAD80819181F401EE0FFF1F50
:1020E000EE0FFF1FE80FF91FA081B1818C918111C4
:1020F0000AC0FFEF8F1A9F0AAF0ABF0A8DA29EA2E5
:10210000AFA2B8A68FC18330A1F30280F381E02D86
:102110002FA938ADE20FF31F808191819AAB89AB73
:10212000892B39F34F5F5F4F6F4F7F4F49875A8736
:102130006B877C879E01235E3F4FAE01475D5F4FFB
:1021400064E070E0C8010E94A7078111D0C18D81B1
:102150009E81AF81B8850496A11DB11D8D839E839C
:10216000AF83B8874D8D5E8DBE016B5D7F4F8F8DC8
:1021700098A10E94612F8BA19CA1009761F06D8DA9
:102180007E8DA5E2B0E0AC0FBD1F6A0F7B1F49A199
:102190005AA10E94612F1CAA1BAA412C512C32016A
:1021A000E9A9FAA980819181A281B38148165906D3
:1021B0006A067B060CF09DCFE9A9FAA98481958176
:1021C0002BA93CA9280F391F38AB2FA7D90112968C
:1021D0006D917C919E01235E3F4FAE01475D5F4F45
:1021E000C8010E94A707811182C1EFA5F8A98281C9
:1021F0009381092E000CAA0BBB0B4D815E816F8170
:102200007885840F951FA61FB71F8D839E83AF838C
:10221000B887608171814D8D5E8D8F8D98A10E94F0
:10222000612F8BA19CA1009761F0AFA5B8A96D911A
:102230007C912D8D3E8D620F731F49A15AA10E9482
:10224000612FBFEF4B1A5B0A6B0A7B0AEBA9FCA953
:102250003496FCABEBABA4CF312C212C049709F0C6
:10226000D1CD8EE0EDADFEAD8E9F80018F9F100D24
:10227000112423962EAD3FAD2397020F131FD801D3
:1022800012964D915C9113974115510509F4BACD01
:1022900016968D919C919AA789A780E1FE013196AF
:1022A000DF011D928A95E9F7C98ADA8AEB8AFC8AEE
:1022B0002114310409F458C084E48C9DF0018D9DF3
:1022C000F00D1124EA5DFA4FDF01DE968D909D90AE
:1022D000AD90BC9082AD93ADA4ADB5AD8816990616
:1022E000AA06BB0609F040C0F801848195810084EC
:1022F000F185E02D349624E0DE01559601900D9293
:102300002A95E1F72D893E89285F3F4F3E8B2D8B23
:10231000D80118966D917C911997260F371F199641
:102320003C932E93189718962D913C911997480F2E
:10233000591F241B350B37FD06C0820F931F1996BA
:102340009C938E93189784E48C9DF0018D9DF00DE5
:102350001124EC59FA4FB1E08B1A9108A108B10889
:1023600080829182A282B3829E012B5E3F4FAE019A
:10237000475D5F4F64E170E0C8010E94A7078111CB
:10238000B6C08CE090E0A0E0B0E08D839E83AF8388
:10239000B8879E01235E3F4FAE01475D5F4F64E00B
:1023A00070E0C8010E94A7078111A1C080E190E000
:1023B000A0E0B0E08D839E83AF83B8874D8D5E8DA6
:1023C000BE01655D7F4F8F8D98A10E94612F8BA10B
:1023D0009CA1009761F06D8D7E8DEBE2F0E0EC0F3B
:1023E000FD1F6E0F7F1F49A15AA10E94612F1DA2E0
:1023F0001EA21FA218A62DAD3EAD220F331F38AF6F
:102400002FAB24E42C9DC0012D9D900D11248A5DDD
:102410009A4FAC014C5F5F4F5AAF49AFDC01189641
:10242000BCAFABAF8DA09EA0AFA0B8A449855A8524
:102430006B857C85E9ADFAAD80819181A281B38104
:1024400088169906AA06BB060CF443CE452B462BEC
:10245000472B09F4D7CC8AE190E0A0E0B0E0898373
:102460009A83AB83BC832DAD3EADC901330FAA0B5C
:10247000BB0B8D879E87AF87B88B4D895E89BE0168
:102480006F5F7F4F8F89988D0E94612F8B8D9C8D00
:10249000009761F06D897E8941E050E04C0F5D1F2F
:1024A000640F751F498D5A8D0E94612F89A59AA5C9
:1024B000D80117969C938E93169711961C921E9294
:1024C000232809F49FCC84E48C9DF0018D9DF00DB0
:1024D0001124EC59FA4F80819181A281B381019638
:1024E000A11DB11D80839183A283B3838BCC23284C
:1024F00009F088CC84E48C9DF0018D9DF00D1124B1
:10250000EA5DFA4F81E090E095A784A785E090E02E
:10251000938B828B77CCCF92DF92EF92FF920F93C7
:102520001F9324E4269FF001279FF00D1124EA5DFC
:10253000FA4F228933892115310509F452C06B0104
:102540007C0121303105B1F482A593A59C012F5F58
:102550003F4F33A722A7092E000CAA0BBB0B028DFD
:10256000138D248D358D80179107A207B307C9F508
:10257000C7013CDB84E48C9DF0018D9DF00D11249E
:10258000EA5DFA4F82899389039759F582A593A54D
:102590009C012F5F3F4F33A722A7092E000CAA0BE7
:1025A000BB0B468D578D60A171A184179507A607B7
:1025B000B707BCF086AD97AD93A782A784E090E003
:1025C000938B828B82AD93ADA4ADB5AD1816190671
:1025D0001A061B0634F4EE5BFF4F81E090E0918316
:1025E00080831F910F91FF90EF90DF90CF9008951F
:1025F00024E4269FF001279FF00D1124EA5DFA4F95
:10260000828993890497B1F482A593A5019693A733
:1026100082A7092E000CAA0BBB0B46895789608D37
:10262000718D84179507A607B70721F485E090E020
:10263000938B828B08952F923F924F925F926F926D
:102640007F928F929F92AF92BF92CF92DF92EF9242
:10265000FF920F931F93CF93DF93CDB7DEB72E97E3
:102660000FB6F894DEBF0FBECDBFDC0149835A839D
:102670006B837C83290184E4849FF001859FF00DA6
:102680001124EA5DFA4F22883388C101049702972A
:1026900008F0D5C011961C921E9213961C921E92A1
:1026A000129715861486912C812C90E080E08F0182
:1026B0009F01205F3F4F38872F833F013CE0630E2F
:1026C000711CBF01625F7F4F7A8769873A96FC87EA
:1026D000EB87EF81F88520813181F30140815181C1
:1026E000E985FA85A080B180841595050CF445C074
:1026F00011965C934E9313963C932E9312971596D6
:10270000BC92AE921497452BF9F4F5E02F163104E4
:10271000D9F41092AE05F801828D938DA48DB58DFC
:10272000AE014F5F5F4F64E070E08F3F9F4FAF4F50
:10273000BF4F09F079C080E290E077D669817A8155
:102740008B819C81A201A7DA2E960FB6F894DEBF8A
:102750000FBECDBFDF91CF911F910F91FF90EF90F2
:10276000DF90CF90BF90AF909F908F907F906F90B1
:102770005F904F903F902F900895EB85FC8560818E
:102780007181FB01E80DF91DFE87ED876081718184
:10279000672B89F5E084F184628173817E836D8388
:1027A000668177816A01E3E0CC0CDD1CEA95E1F7F4
:1027B0002C0D3D1D440F551F4A0D5B1DFA019183E1
:1027C0008083F301408151814F5F5F4F518340838C
:1027D000F901F382E282ED85FE8573876287E61652
:1027E000F70670F46E197F09F90171836083158211
:1027F0001482178216820196FEE08F0E911C69CF1B
:10280000ED85FE85C480D5804D815E814C0D5D1DBA
:102810004E195F09F901518340836C197D09758355
:102820006483D782C682E7CF8FE190E0FED5F801BE
:1028300013A612A681E090E0938B828B85CF15863C
:10284000148611961C921E9213961C921E92129739
:102850007BCFEF92FF920F931F93CF93DF937C0177
:102860008B01EA01BED681111EC08091B002909109
:10287000B102049711F5DF91CF911F910F91FF9055
:10288000EF90089528ED38EB45E050E060E070E00F
:10289000CB010E94A91DAE01B801C7010E94B71D5E
:1028A000C8010E94821D8091AF059091B005892BCF
:1028B000E1F68881882331F3D8CF83E090E09093CC
:1028C000B1028093B002D7CFCF93DF932091B002B3
:1028D0003091B1022430310541F0EB010E94B71D67
:1028E000CE01DF91CF910C94821DDF91CF9108959D
:1028F0000C94B5210C94AA210C9498210C94921D4F
:102900000C943C21089570E060E090E080E044C6C3
:102910000895AF92BF92CF92DF92EF92FF920F9302
:102920001F93CF93DF931F921F92CDB7DEB75C0149
:102930008B0169017A0190E080E0C114D104E104C7
:10294000F10469F40F900F90DF91CF911F910F91D7
:10295000FF90EF90DF90CF90BF90AF9008959C2DA7
:102960008D2DC114D10421E0E206F10410F09FEF97
:102970008FEF9E012F5F3F4F492F582FB801C501A0
:102980000E9444228F3F9807E9F229813A81C21AB6
:10299000D30AE108F108020F131FCFCFCF93DF93C3
:1029A00082E00E94212AEC0183E00E94212AC817BC
:1029B000D90779F56091B5057091B6058091B70595
:1029C0009091B80520E030E040E85FE30E942423C6
:1029D0006093B5057093B6058093B7059093B805DD
:1029E0006091B1057091B2058091B3059091B405E5
:1029F00020E030E040E85FE30E9424236093B105CB
:102A00007093B2058093B3059093B405DF91CF9195
:102A100008956091B5057091B6058091B7059091C4
:102A2000B80520E030E040E85FE30E942323609394
:102A3000B5057093B6058093B7059093B80560917E
:102A4000B1057091B2058091B3059091B40520E075
:102A500030E040E85FE30E942323D0CF8F929F9223
:102A6000AF92BF92CF92DF92EF92FF92CF93DF931C
:102A700000D000D0CDB7DEB74FE852EC65EF7CE375
:102A800049835A836B837C8320E030E040E85FE336
:102A9000FC0160817181828193810E949B2381115D
:102AA00032C08091B5059091B605A091B705B0915F
:102AB000B8058D839E83AF83B8876091B50570910B
:102AC000B6058091B7059091B80589809A80AB8052
:102AD000BC8020E030E040E752E40E9441256B01D9
:102AE0007C0120E030E048E455E4C501B4010E94D7
:102AF00041259B01AC01C701B6010E949F236E8353
:102B00007F838887998726960FB6F894DEBF0FBE1D
:102B1000CDBFDF91CF91FF90EF90DF90CF90BF902E
:102B2000AF909F908F9008958F929F92AF92BF9297
:102B3000CF92DF92EF92FF920F931F93CF93DF9389
:102B400000D01F92CDB7DEB77C018B01FA018FE870
:102B500092ECA5EFBCE389839A83AB83BC8320E02E
:102B600030E040E85FE360817181828193810E945F
:102B70009B2381113CC08091B1059091B205A09139
:102B8000B305B091B405F70180839183A283B38329
:102B90006091B5057091B6058091B7059091B80523
:102BA00089809A80AB80BC8020E030E040E752E42E
:102BB0000E9441256B017C0120E030E048E455E4AF
:102BC000C501B4010E9441259B01AC01C701B601BA
:102BD0000E949F23F8016083718382839383109204
:102BE000B5051092B6051092B7051092B8050F9072
:102BF0000F900F900F90DF91CF911F910F91FF9049
:102C0000EF90DF90CF90BF90AF909F908F900895FE
:102C1000CF93DF93EA0120E030E040E85FE3688192
:102C200079818A819B810E949B23882379F160E0CE
:102C300082E00E94B82960E083E00E94B82961E048
:102C400082E00E94F42961E083E00E94F42960E0C0
:102C500084E00E94B82960E086E00E94B82961E023
:102C600084E00E94F42961E086E00E94F42941E0BA
:102C700050E06EEC74E180E00E94A52580E090E0D9
:102C8000A0E8BFE388839983AA83BB83DF91CF91B8
:102C9000089540E855E260E070E090E080E000C018
:102CA0008130910579F01CF4892B39F00895823038
:102CB000910561F0039771F0089526E08EEE95E09E
:102CC0000C94132B26E08BE896E0FACF26E088E2FE
:102CD00097E0F6CF26E085EC97E0F2CF1F920F92B7
:102CE0000FB60F9211240BB60F922F933F934F9371
:102CF0005F936F937F938F939F93AF93BF93EF9364
:102D0000FF938DEA98EF90932501809324010E9410
:102D10007E22FF91EF91BF91AF919F918F917F9113
:102D20006F915F914F913F912F910F900BBE0F903C
:102D30000FBE0F901F9018958DEA98EF9093250184
:102D400080932401A3E7B0E08C918E7F8C93E0E226
:102D5000F1E080818C7F8083E1E2F1E08081877EF9
:102D6000808380818460808380818C7F80838C914C
:102D700081608C93089581E008958F929F92AF9225
:102D8000BF92CF92DF92EF92FF920F931F93CF9358
:102D9000DF935C017B018A01C1E0D0E0CE15DF0545
:102DA000CCF081E0F5018083B801C7010E94DF21EA
:102DB000F5019283818390E080E0DF91CF911F91B4
:102DC0000F91FF90EF90DF90CF90BF90AF909F90CA
:102DD0008F9008956E018FEFC81AD80AFE01EE0F8A
:102DE000FF1FE00FF11F808091808114910469F032
:102DF00061E774E0C4010E94712F892B41F4CC0F6C
:102E0000DD1FC00FD11F19821882E601C7CF64E70A
:102E100074E0C4010E94712F892BB9F7EC14FD04F2
:102E2000A1F36E01E2E0CE0ED11CCC0FDD1FC00F6E
:102E3000D11F198218821B821A82E7CF89EB95E095
:102E4000089580E008950F931F93CF93DF938B0134
:102E5000BA01E901198218829801012E000C440B75
:102E6000550BFC018181928154DD019641F019835B
:102E7000088380E0DF91CF911F910F91089581E049
:102E8000F9CF0F931F93CF93DF931F921F92CDB76C
:102E9000DEB7FB018A01B9019E012F5F3F4FAF01F1
:102EA000FC01818192810E94F621019669F089815D
:102EB0009A81F8019183808380E00F900F90DF91D9
:102EC000CF911F910F91089581E0F7CFFC01808190
:102ED00008950895089581E0FB01808380E00895BE
:102EE00008951092E1050895FC01818192810C946E
:102EF000D721CF93DF9300D000D000D01F92CDB761
:102F0000DEB7B0E0A0E089839A83AB83BC83CB01BA
:102F1000770FAA0BBB0B8D839E83AF83B8879E016F
:102F2000275F3F4FAE014F5F5F4F68E070E08091D9
:102F3000D0059091D10587DF811110C081E02985EE
:102F40003A852830310509F480E02A960FB6F894C6
:102F5000DEBF0FBECDBFDF91CF91089581E0F5CFE9
:102F60000F931F93CF93DF931F921F92CDB7DEB7BE
:102F70008B019E012F5F3F4FAC018091D005909156
:102F8000D10561DF81110EC081E029813A812017CE
:102F9000310709F480E00F900F90DF91CF911F91DE
:102FA0000F91089581E0F7CFCF93DF93EC0110925A
:102FB000D4051092D3051092E0051092DF05AC0104
:102FC00060E070E0CB010E944B0EAE0161E070E06A
:102FD00080E090E00E944B0E8091D0059091D10549
:102FE000DF91CF917DCF4F925F926F927F928F92C0
:102FF0009F92AF92BF92CF92DF92EF92FF920F9388
:103000001F93CF93DF931F921F92CDB7DEB78C0132
:103010007C0197FF03C087E0E80EF11C23E0F594E4
:10302000E7942A95E1F7C80168E070E00E94D12D8D
:103030006C010E5F1F4F8091CE059091CF058017D8
:103040009107D4F48091CC059091CD05009731F093
:103050000E94D82E1092CF051092CE05C8010E9472
:103060003C2E9093CD058093CC05892B09F482C02A
:103070001093CF050093CE0510E000E047C1412C2E
:10308000512C3201B12CA12C95012B523A4FAE019B
:103090004F5F5F4F61E070E08091D0059091D10566
:1030A000F0DE811149C0EFEF4E1A5E0A6E0A7E0A09
:1030B000F0E94F16FFE55F06F1E06F06710444F09A
:1030C0006091DF057091E0058DEE90E012DFD7CFC3
:1030D00089819A81A80EB91E8AE0A816B10409F068
:1030E00043C049E050E070E060E085ED95E00E946B
:1030F00070226091DF057091E005882391F1809145
:10310000DD0590E08617970781F4BC018EEE90E014
:10311000F0DE8091DF059091E0050196992790936C
:10312000E0058093DF050F5F1F4F0E151F050CF4A0
:10313000A6CFCD2809F07CC090E080E00F900F90E2
:10314000DF91CF911F910F91FF90EF90DF90CF9083
:10315000BF90AF909F908F907F906F905F904F90B7
:1031600008958FEE90E0B2CFEAE0AE16B1040CF411
:103170008BCFDBCF10E000E0D8CF0A30110531F55E
:1031800049E050E070E060E085ED95E00E9470223B
:103190006091DF057091E0058823A9F08091DD053D
:1031A00090E08617970741F6BC018EEE90E0A1DE15
:1031B0008091DF059091E005019699279093E005B5
:1031C0008093DF05B9CF8FEE90E02BC00A30110558
:1031D0000CF0B2CF98012B523A4FAE014F5F5F4FC8
:1031E00061E070E08091D0059091D1054ADE8111B7
:1031F000A3CF89819A81080F191FFFEFCF1ADF0A29
:10320000EF0AFF0A80E9C8168FE5D80681E0E806D4
:10321000F1040CF4B2CF6091DF057091E0058DEE02
:1032200090E067DE10E000E0C12CD12C7601D2CF17
:10323000C12CD12C760110E000E0CCCF412C512CD8
:103240003201B12CA12C480193E0880C991C9A956D
:10325000E1F72091CC053091CD05C501880D991D70
:10326000280F391FAE014F5F5F4F61E070E0809122
:10327000D0059091D10505DE81115ECFEFEF4E1A9A
:103280005E0A6E0A7E0A6091DF057091E0058DEEA0
:1032900090E0F0E94F16FFE55F06F1E06F0671047C
:1032A0000CF043C089819A81A80EB91E8AE0A81645
:1032B000B10409F041C049E050E0B4018091CC056F
:1032C0009091CD050E9470226091DF057091E0051C
:1032D000882349F18091CC059091CD05880E991EE7
:1032E000F401808590E08617970781F4BC018EEE8B
:1032F00090E0FFDD8091DF059091E0050196992730
:103300009093E0058093DF050F5F1F4F0E151F059B
:103310000CF494CFC114D10409F081C08091CC0584
:103320009091CD050BCF8FEE90E0E3DD412C512C39
:103330003201B12CA12C8DCFFAE0AF16B1040CF400
:1033400088CFE4CF8FEE90E0D4DDF12CE12C812CFE
:10335000912C540197012B523A4FAE014F5F5F4FB2
:1033600061E070E08091D0059091D1058ADD8111F6
:10337000E3CE8FEF881A980AA80AB80A6091DF0591
:103380007091E0058DEE90E0E0E98E16EFE59E0687
:10339000E1E0AE06B104C4F689819A81E80EF91E17
:1033A000FAE0EF16F104A9F549E050E070E060E0C2
:1033B00085ED95E00E9470226091DF057091E00537
:1033C000882309F4BFCF8091DD0590E08617970729
:1033D00009F0A4CFBC018EEE90E08BDD83E0000FFE
:1033E000111F8A95E1F78091CC059091CD05A6013A
:1033F00065ED75E0800F911F0E94612F8091DF05C0
:103400009091E005019699279093E0058093DF0560
:1034100085CF8AE0E816F1040CF49CCF7FCF812C95
:10342000912C5401F12CE12C95CFCF92DF92EF92A9
:10343000FF920F931F93CF93DF931F92CDB7DEB709
:103440006C017B018A01452B39F0AB0170E060E033
:10345000C8010E946C228983B701C6014ADD81112F
:103460000DC00115110551F0B701C80179DD8111B9
:1034700005C061E070E0CE01019672DD0F90DF9132
:10348000CF911F910F91FF90EF90DF90CF90089513
:10349000CF92DF92EF92FF92CF93DF9300D000D0D4
:1034A0001F921F92CDB7DEB76B01F12CE12CC982C0
:1034B000DA82EB82FC822D833E834F835887AE01F4
:1034C0004F5F5F4F68E070E0B0DF28960FB6F8946A
:1034D000DEBF0FBECDBFDF91CF91FF90EF90DF90A9
:1034E000CF9008958F929F92AF92BF92CF92DF922A
:1034F000EF92FF920F931F93CF93DF937C01EB0129
:10350000CA01690170DD0097B1F42FEF3FEFA90107
:1035100061E070E0C701BCDFC1E08C2FDF91CF918B
:103520001F910F91FF90EF90DF90CF90BF90AF90E1
:103530009F908F900895FC0181909190A190B190FF
:10354000BF01FCE1EF16F10479F4A5019401CE016D
:103550000E94B10CC82FA5019401882369F061E095
:1035600070E0C70195DFD9CF95018401AB01B601A9
:10357000CE010E94B40AEECF70E060E0C701DF9197
:10358000CF911F910F91FF90EF90DF90CF90BF9060
:10359000AF909F908F907CCF0F931F93CF93DF932B
:1035A000EC018B014BDC9093D1058093D005009703
:1035B000A9F0A801BE01E1DBEC01892B49F0809163
:1035C000D0059091D10585DC1092D1051092D005DF
:1035D000CE01DF91CF911F910F910895C0E8D4E003
:1035E000EECF8091D0059091D10570CC2F923F9273
:1035F0004F925F926F927F928F929F92AF92BF9203
:10360000CF92DF92EF92FF920F931F93CF93DF93AE
:10361000CDB7DEB769970FB6F894DEBF0FBECDBF4A
:103620002091D4052223F9F05B8B4A8B6E877F872C
:10363000888B998B9A01AB01BC01CE0101967C016C
:103640000E941B1310E048E0242E312CE88EF98EE6
:1036500089819A81181619060CF451C2112319F0A8
:103660008A899B89A1DC69960FB6F894DEBF0FBEEC
:10367000CDBFDF91CF911F910F91FF90EF90DF9021
:10368000CF90BF90AF909F908F907F906F905F9002
:103690004F903F902F900895EB81FC818C859D8504
:1036A00033E0880F991F3A95E1F7E80FF91F808101
:1036B00091819093CB058093CA0524813581428105
:1036C00053815093C9054093C80546815781509353
:1036D000C7054093C605820F931F9C01990F440BA9
:1036E000550B2C8B3D8B4E8B5F8B812C912C540179
:1036F0008C899D89AE89BF8988169906AA06BB0662
:1037000040F18C859D85880F991FED81FE81E80F22
:10371000F91F4E855F8568897989808191810E9432
:103720007D0EAC85BD851196BD87AC8789819A8158
:10373000EC85FD85E817F9070CF4AECF2A893B89A3
:103740004E855F8568897989888D998D0E941B13C4
:103750007FCF1F826091CA057091CB05CB01072EE8
:10376000000CAA0BBB0B84017501640134E0C30E8D
:10377000D11CE11CF11CC816D906EA06FB0608F0AC
:10378000B3C02091C8053091C905A4014C5F5F4FBB
:10379000240F351FF901C080D12CF12CE12C24011C
:1037A0003501F5E04F0E511C611C711C481659067D
:1037B0006A067B0608F0A3C02091C8053091C905B0
:1037C000F8013596E20FF31F2081D22A240135013A
:1037D00026E0420E511C611C711C481659066A06EF
:1037E0007B0608F097C02091C8053091C905F80103
:1037F0003696E20FF31F2081E22A2401350137E0DB
:10380000430E511C611C711C481659066A067B0642
:1038100008F08BC02091C8053091C905F801379692
:10382000E20FF31F208126013701722A750164011E
:1038300048E0C40ED11CE11CF11C8C159D05AE05A1
:10384000BF0508F41DC188169906AA06BB0608F034
:1038500077C08091C8059091C905800F911F68E0DD
:1038600070E07EDBE091CA05F091CB059F010F2E41
:10387000000C440B550BD301C2018C0D9D1DAE1DD8
:10388000BF1D281739074A075B0708F478C0C2161E
:10389000D306E406F50608F05DC08091C805909156
:1038A000C9059801285F3F4F820F931FB20158DB73
:1038B0008091CA059091CB05AC01092E000C660BD6
:1038C000770BC416D506E606F70608F04DC0085F6C
:1038D0001F4F8091C8059091C905800F911FA201CB
:1038E00070E060E0F9D5A7C044E050E0461B570BFC
:1038F000480D591D2091C6053091C70549CFE5E017
:10390000F0E0E61BF70BE00FF11F2091C6053091A8
:10391000C70558CFE6E0F0E0E61BF70BE00FF11F1C
:103920002091C6053091C70564CFE7E0F0E0E61BC3
:10393000F70BE00FF11F2091C6053091C70570CF3E
:103940009801261B370B8091C6059091C705820F01
:10395000931F85CF91012E1B3F0B200F311F8091AC
:10396000C6059091C705A0CFD101A81BB90BCD0109
:10397000080F191F8091C6059091C705AECFBF01F2
:1039800068507109601B710BC216D306E406F50678
:1039900008F062C08091C8059091C9059801285F20
:1039A0003F4F820F931FDCDA8091CA059091CB05BF
:1039B000B101681B790B600F711F640D751D80913B
:1039C000C6059091C705CCDA8091CA059091CB05C8
:1039D000AC0148505109FA01E01BF10BAC01092E72
:1039E000000C660B770BC416D506E606F70608F042
:1039F0003DC08091C8059091C9059801285F3F4F4F
:103A0000820F931FAF0170E060E066D58F83209135
:103A1000CA053091CB05F101E21BF30B9F01200F8A
:103A2000311F240D351D50E040E0682F8091C60500
:103A30009091C7053DD58F8361E070E0CE01079678
:103A40008FDA182F38E0430E511C611C711C840C56
:103A5000951CA61CB71C4CCE91012E1B3F0B200FB2
:103A6000311F8091C6059091C7059BCF9101281BFE
:103A7000390B200F311F8091C6059091C705C0CF2B
:103A800088169906AA06BB0668F5601B710B809123
:103A9000C8059091C905800F911F62DA8091CA050F
:103AA0009091CB05B101681B790B600F711F640DFC
:103AB000751D8091C6059091C70552DA8091CA059F
:103AC0009091CB05AC01092E000C660B770BC41648
:103AD000D506E606F70608F4FACE9101281B390B45
:103AE000C90146CFC801861B970B2091C6053091AE
:103AF000C705B201685F7F4F820F931FDECF1D861F
:103B00001C8614CECF93DF93EC01AC0160E070E033
:103B1000CB016CDDAE0161E070E080E090E0DF9110
:103B2000CF9164CDCF938091D0059091D10589D963
:103B3000C82F81110BC060E070E0CB010E947609B4
:103B400061E070E080E090E00E9476098C2FCF91D8
:103B500008950F931F9389019A01AB01BC018091D5
:103B6000D0059091D105B6D91F910F9108954F922C
:103B70005F926F927F928F929F92AF92BF92CF92FD
:103B8000DF92EF92FF920F931F93CF93DF93CDB706
:103B9000DEB763970FB6F894DEBF0FBECDBF6C01E2
:103BA0008B015A018091D405882309F43DC080918E
:103BB000D405882309F442C08091D3051A82198262
:103BC000882309F4C0C0F0E94F2EFFE55F2E66247C
:103BD0006394712CF12CE12C970124543A4FAE01DF
:103BE0004F5F5F4F61E070E08091D0059091D1050B
:103BF00048D9982E811169C089819A81E80EF91EF1
:103C0000E114F10409F461C081E0481A5108610827
:103C1000710859F56091DF057091E0058DEE90E037
:103C200068D91A82198251C064ED75E08091D0057F
:103C30009091D10550D9882309F4B9CF63960FB676
:103C4000F894DEBF0FBECDBFDF91CF911F910F91D2
:103C5000FF90EF90DF90CF90BF90AF909F908F90AC
:103C60007F906F905F904F900895AAE0EA16F1045C
:103C700009F063C049E050E070E060E08CEB95E053
:103C80002FD46091DF057091E005882309F452C0BC
:103C90008091C40590E08617970719F6BC018EEE57
:103CA00090E027D988E0ECEBF5E0DE011996019071
:103CB0000D928A95E1F78091DF059091E0050196DC
:103CC00099279093E0058093DF0581E029813A816F
:103CD000121613060CF080E09110CAC2882309F472
:103CE000ADCF8091D305811104C019861A861B8639
:103CF0001C8689859A85AB85BC8580319105A10597
:103D0000B10508F09BCFFC018827E657F14E8F4F95
:103D10000C94062E0A1FC92038211E1E0E20412099
:103D2000FA1E021FDE1E1D210C2119211E1E1E1E41
:103D30001E1EC91E8FEE90E073CFBAE0EB16F104A1
:103D40000CF44ACFC2CFF12CE12CE8E06E2E712C9E
:103D500029E030E02C0F3D1F2E0D3F1DAE014F5FBF
:103D60005F4FB3016E197F098091D0059091D10505
:103D700088D8982E29813A81811109C0E20EF31E5C
:103D8000E114F10421F0E8E0EE16F1040CF381E017
:103D90009FCFD6011696ED91FC9180819181A281F1
:103DA000B38189839A83AB83BC83AE014F5F5F4F3E
:103DB00064E070E085E190E038DB40CF8D859E8542
:103DC00012D92FEF3FEFA90161E070E0009771F089
:103DD000FC01C080D180E280F380A801C701B60158
:103DE0000E94F60DA701960170E060E08DE190E081
:103DF0004FDB24CF4D855E859801B6018BE190E0C5
:103E000071DB1CCF4D855E852FEF3FEFB6018CE156
:103E100090E0F6CFD6011496ED91FC9100811181CE
:103E2000F80182809380A080B18070E1472E512CF0
:103E3000612C712C49825A826B827C8288E090E0EE
:103E4000A0E0B0E08D839E83AF83B8879E012F5E94
:103E50003F4FAE014F5F5F4F68E070E08091D0054B
:103E60009091D1050E9423178823D9F010E000E03B
:103E7000C80163960FB6F894DEBF0FBECDBFDF91C9
:103E8000CF911F910F91FF90EF90DF90CF90BF9057
:103E9000AF909F908F907F906F905F904F900C9419
:103EA000D82E89899A89089709F7D801ED90FC9056
:103EB000B8E0EB0EF11CEE0CFF1CEE0CFF1CC70172
:103EC0000E943C2E8C01892B89F249825A826B8296
:103ED0007C82C7010F2C000CAA0BBB0B8D839E8329
:103EE000AF83B8879E012F5E3F4FAE014F5F5F4F9C
:103EF00068E070E08091D0059091D1050E94231771
:103F00008111B6CF89899A89089709F0B1CFD60176
:103F10001296ED91FC914081518162817381D801AB
:103F20004D935D936D937C93139744815581668186
:103F3000778114964D935D936D937C93179740858D
:103F400051856285738518964D935D936D937C932F
:103F50001B9784859585A685B785F8018487958705
:103F6000A687B787108A118A128A138A84E090E0A4
:103F7000A0E0B0E0848B958BA68BB78B8091B002CC
:103F80009091B102B0E0A0E0808F918FA28FB38FAB
:103F9000C5010B2C000CAA0BBB0B848F958FA68F31
:103FA000B78FF401D801909690E080E08A159B05C8
:103FB0005CF19E012F5E3F4FA801B7018091D005B3
:103FC0009091D1050E942317811152CF89899A8936
:103FD000E816F90609F04CCFA70170E060E0C801CF
:103FE0007BD28B8B9E012F5E3F4FAE014D5E5F4FAC
:103FF00061E070E08091D0059091D1050E94231777
:1040000081E08093D30534CF4191519170E060E01D
:104010004D935D936D937D930196C8CF8D859E855D
:10402000AF85B8890097A105B10521F481E080939F
:10403000D20504CE0E94F317009781F481E090E04E
:10404000A0E0B0E089839A83AB83BC83AE014F5F6D
:104050005F4F64E070E082E190E0AECEBC01C6014B
:104060000E94D00819821A821B821C82AE014F5F07
:104070005F4F64E070E082E190E0D7D98823B1F22D
:10408000DDCDD6011496ED91FC910190F081E02DEB
:10409000E084F1848FEF8983E114F10409F472C0A4
:1040A000D7016D907C90C280D38070E060E090E09A
:1040B00080E08615970594F083E190E00E947917DF
:1040C00010E000E08111BACD061517055CF161E042
:1040D00070E0CE0101960E94B017B0CD9C0143E084
:1040E000220F331F4A95E1F7F701A281B381A20F96
:1040F000B31F1296ED91FC911397EE0FFF1FEC0D7D
:10410000FD1D0190F081E02D16964D915C91E49F8C
:104110009001E59F300DF49F300D1124620F731F45
:104120000196C7CFD7011296ED91FC91C80123E00B
:10413000880F991F2A95E1F7E80FF91FA080B18039
:10414000A281B381AA0FBB1FAC0DBD1D2D913C9167
:1041500086819781289F4001299F900C389F900C61
:104160001124B401C5010E94B017582E940150E0EB
:1041700040E06981C5019CD1898351105FCD0F5FFB
:104180001F4FA2CF70E060E083E190E00E947917BA
:1041900055CD50E040E070E060E081E190E045D92D
:1041A00081114CCD60E070E0CB010E949B0A8091B0
:1041B000AE05882329F0A80160E070E0CB0116DA93
:1041C000A80160E070E0CB010E94A20961E070E00C
:1041D00080E090E00E949B0A8091AE05882331F038
:1041E000A80161E070E080E090E000DAA80161E001
:1041F00070E080E090E00E94A2091092D405109235
:10420000D3051092E0051092DF058091D0059091C2
:10421000D1050E94711712CD81E090E09093B00516
:104220008093AF0550E040E070E060E086E190E010
:10423000C3CD81E0F501808301CD8D859E850E94EF
:10424000F3172FEF3FEFA90161E070E0009769F0ED
:10425000DC01CD90DD90ED90FC90C701B6010E948D
:10426000560EA701960170E060E08EE190E0C0CDAF
:10427000C8010E94D417E2CCCF92DF92EF92FF9256
:10428000CF93DF93EC01C12CD12C7601C701B6018D
:104290000E949B0AAE01C701B601A8D9AE01C701B1
:1042A000B6010E94A2098091CC059091CD0500979E
:1042B00031F00E94D82E1092CD051092CC05CA94F0
:1042C000CD28CE28CF2879F58091D305F12C8823ED
:1042D00051F050E040E070E060E084E190E0A5D86B
:1042E000F82E1092D3058091D405882341F01092C6
:1042F000D40581E090E09093B1028093B002809168
:10430000D0059091D1050E9474178091D0059091AD
:10431000D1050E9469178F2DDF91CF91FF90EF900B
:10432000DF90CF900895C12CD12C7601C394AECFED
:10433000CF93DF93EC01AC0160E070E0CB010E9411
:104340008B12AE0161E070E080E090E0DF91CF91F0
:104350000C948B1260E070E0CB010E94F81261E0D7
:1043600070E080E090E00C94F812CF92DF92EF9230
:10437000FF920F931F93CF93DF93EC016A017B01B0
:1043800000E010E098010E94A60E01E010E020E09D
:1043900030E0B701A601CE010E94A60EDF91CF91B9
:1043A0001F910F91FF90EF90DF90CF90089568EEEE
:1043B00073E080E090E00AD690E080E0089526E087
:1043C00040E050E16EE070E08EEE95E00E94132B2D
:1043D0008EEE95E00E94492A892B29F08EEE95E019
:1043E0000E94632AF5CF90E080E00895CF92DF929B
:1043F000EF92FF920F931F93CF93DF936B017A019C
:10440000E901198218828EEE95E00E94492A892BD3
:1044100081F18601CC24C39485E6D82E8091E105F4
:10442000811112C08EEE95E00E94632A85369105B7
:10443000A9F7C092E105F801D1928F018881998195
:10444000019699838883EACF888199818E159F058B
:1044500080F48EEE95E00E94632A8F3F9807A1F3C7
:10446000F80181938F0188819981019699838883CE
:10447000EBCF90E080E0DF91CF911F910F91FF9003
:10448000EF90DF90CF9008950F931F93CF93DF931A
:10449000EA0189018EEE95E00E94A32DF801D183F7
:1044A000C08390E080E0DF91CF911F910F9108953C
:1044B000DC01A40FB51F420F531F9D01281B390BB0
:1044C0002417350710F0862F0895ED91E627F0E0C8
:1044D000EC51FF4F6491F1CF9A01AB016FEFE8CF40
:1044E000CF93FC01E60FF71FE40FF51FC081F4DF47
:1044F00091E0C81390E0892FCF9108958091E20553
:1045000091E0980F9093E205882349F021E030E094
:104510003093E4052093E3058093E20508957894B1
:104520000E943004F8948091E20581508093E20566
:104530000C947A14FF920F931F93CF93DF931F92E3
:10454000CDB7DEB71092580A1092570A75D50E945F
:1045500049160091A3031091A403F801118210825F
:1045600070E060E090E080E00E9483140E94ED051E
:10457000F8947894C80182960E94821481E090E0B9
:104580000E947E141982AE014F5F5F4F61E070E0C0
:10459000F801828193810E9429148981882319F06E
:1045A00081E0F80186A30E948814F8940E949C166A
:1045B000F80180819181892B19F481E096A19111F4
:1045C00080E08093570A78947894FF24F394809144
:1045D000570A811110C00E941C0781E090E00E94E0
:1045E0008014F89490E080E00F90DF91CF911F91BC
:1045F0000F91FF9008951982AE014F5F5F4F61E008
:1046000070E0F801828193810E946414898188237B
:1046100011F0F801F6A2F80180819181892B89F4CB
:1046200081E096A1911101C080E08093580A909199
:10463000580A81E0911180E08093570A0E94BB16CE
:10464000C6CF81E0F2CF5058BB27AA270ED0C4C1F5
:10465000B5D130F0BAD120F031F49F3F11F41EF4FF
:10466000AAC10EF4E095E7FB77C1E92FC6D180F32C
:10467000BA17620773078407950718F071F49EF55F
:10468000F5C10EF4E0950B2EBA2FA02D0B01B90148
:1046900090010C01CA01A0011124FF27591B99F0B8
:1046A000593F50F4503E68F11A16F040A22F232FC4
:1046B000342F4427585FF3CF469537952795A79514
:1046C000F0405395C9F77EF41F16BA0B620B730BBB
:1046D000840BBAF09150A1F0FF0FBB1F661F771F2C
:1046E000881FC2F70EC0BA0F621F731F841F48F4E1
:1046F000879577956795B795F7959E3F08F0B3CF67
:104700009395880F08F09927EE0F97958795089550
:1047100096D180F09F3740F491110EF4A8C160E06B
:1047200070E080E89FE3089526F01B16611D711D5F
:10473000811D18C132C1ECD008F481E008950CD07D
:104740004BC143D140F03AD130F021F45F3F19F032
:1047500003C151118CC12FC150D198F39923C9F3D2
:104760005523B1F3951B550BBB27AA276217730777
:10477000840738F09F5F5F4F220F331F441FAA1F2B
:10478000A9F333D00E2E3AF0E0E830D091505040EB
:10479000E695001CCAF729D0FE2F27D0660F771F99
:1047A000881FBB1F261737074807AB07B0E809F07B
:1047B000BB0B802DBF01FF2793585F4F2AF09E3F10
:1047C000510568F0C9C053C15F3FECF3983EDCF37C
:1047D000869577956795B795F7959F5FC9F7880F89
:1047E000911D9695879597F90895E1E0660F771FDB
:1047F000881FBB1F621773078407BA0720F0621B6C
:10480000730B840BBA0BEE1F88F7E095089504D064
:104810006894B1112CC10895F8D088F09F5790F09A
:10482000B92F9927B751A0F0D1F0660F771F881FD5
:10483000991F1AF0BA95C9F712C0B13081F016D19C
:10484000B1E0089513C1672F782F8827B85F39F03A
:10485000B93FCCF3869577956795B395D9F73EF434
:1048600090958095709561957F4F8F4F9F4F0895DC
:10487000E89409C097FB3EF49095809570956195FA
:104880007F4F8F4F9F4F9923A9F0F92F96E9BB27B0
:104890009395F695879577956795B795F111F8CF2C
:1048A000FAF4BB0F11F460FF1BC06F5F7F4F8F4F97
:1048B0009F4F16C0882311F096E911C0772321F08D
:1048C0009EE8872F762F05C0662371F096E8862F25
:1048D00070E060E02AF09A95660F771F881FDAF77C
:1048E000880F9695879597F90895A9D080F09F37FE
:1048F00040F491110EF0BBC060E070E080E89FEBE7
:10490000089526F41B16611D711D811D2BC045C025
:10491000990F0008550FAA0BE0E8FEEF16161706D0
:10492000E807F907C0F012161306E407F50798F038
:10493000621B730B840B950B39F40A2661F0232B51
:10494000242B252B21F408950A2609F4A140A695CD
:104950008FEF811D811D089597F99F6780E870E0B2
:1049600060E00895882371F4772321F09850872B15
:10497000762F07C0662311F499270DC09051862B1E
:1049800070E060E02AF09A95660F771F881FDAF7CB
:10499000880F9695879597F908959F3F31F091502C
:1049A00020F4879577956795B795880F911D969513
:1049B000879597F908959FEF80EC089500240A9455
:1049C0001616170618060906089500240A941216EA
:1049D0001306140605060895092E0394000C11F41D
:1049E000882352F0BB0F40F4BF2B11F460FF04C0CA
:1049F0006F5F7F4F8F4F9F4F089557FD9058440F23
:104A0000551F59F05F3F71F04795880F97FB991F2D
:104A100061F09F3F79F087950895121613061406EA
:104A2000551FF2CF4695F1DF08C016161706180677
:104A3000991FF1CF86957105610508940895E5DF0A
:104A4000A0F0BEE7B91788F4BB279F3860F41616AC
:104A5000B11D672F782F8827985FF7CF86957795B8
:104A60006795B11D93959639C8F30895E894BB27CF
:104A700066277727CB0197F908954ADF08F48FEF6F
:104A800008950BD0A9CF9ADF28F09FDF18F0952367
:104A900009F062CF90CF1124EACFAFDFA0F3959F4A
:104AA000D1F3950F50E0551F629FF001729FBB2715
:104AB000F00DB11D639FAA27F00DB11DAA1F649FC1
:104AC0006627B00DA11D661F829F2227B00DA11D74
:104AD000621F739FB00DA11D621F839FA00D611DFA
:104AE000221F749F3327A00D611D231F849F600D1B
:104AF000211D822F762F6A2F11249F5750408AF054
:104B0000E1F088234AF0EE0FFF1FBB1F661F771FDF
:104B1000881F91505040A9F79E3F510570F01CCF5F
:104B2000A6CF5F3FECF3983EDCF3869577956795CB
:104B3000B795F795E7959F5FC1F7FE2B880F911DFD
:104B40009695879597F908950895883008F076C06E
:104B5000E82FF0E0EE0FFF1FEE54FD4F71836083EE
:104B60008150873008F03DC0E82FF0E08827E454FA
:104B7000FA4D8F4F0C94062EF925C325CB25D7254A
:104B8000E42505261226809169008C7F482B4093EE
:104B90006900E89A089580916900837F440F551F4A
:104BA000440F551F482B40936900E99A089580915E
:104BB00069008F7C74E0440F551F7A95E1F7482B0C
:104BC00040936900EA9A0895809169008F7366E0C6
:104BD000440F551F6A95E1F7482B40936900EB9A03
:104BE000089580916A008C7F482B40936A00EC9A6C
:104BF000089580916A00837F440F551F440F551F0D
:104C0000482B40936A00ED9A089580916A008F7C4A
:104C100024E0440F551F2A95E1F7482B40936A0082
:104C2000EE9A089580916A008F7396E0440F551FA5
:104C30009A95E1F7482B40936A00EF9A08951F92E6
:104C40000F920FB60F9211240BB60F922F933F9332
:104C50004F935F936F937F938F939F93AF93BF9384
:104C6000EF93FF93E091B602F091B7021995FF918F
:104C7000EF91BF91AF919F918F917F916F915F91D4
:104C80004F913F912F910F900BBE0F900FBE0F9041
:104C90001F9018951F920F920FB60F9211240BB60A
:104CA0000F922F933F934F935F936F937F938F93C5
:104CB0009F93AF93BF93EF93FF93E091B802F0916E
:104CC000B9021995FF91EF91BF91AF919F918F918B
:104CD0007F916F915F914F913F912F910F900BBEFC
:104CE0000F900FBE0F901F9018951F920F920FB646
:104CF0000F9211240BB60F922F933F934F935F9314
:104D00006F937F938F939F93AF93BF93EF93FF9393
:104D1000E091BA02F091BB021995FF91EF91BF911A
:104D2000AF919F918F917F916F915F914F913F9143
:104D30002F910F900BBE0F900FBE0F901F901895E4
:104D40001F920F920FB60F9211240BB60F922F9352
:104D50003F934F935F936F937F938F939F93AF9303
:104D6000BF93EF93FF93E091BC02F091BD021995C0
:104D7000FF91EF91BF91AF919F918F917F916F9133
:104D80005F914F913F912F910F900BBE0F900FBEEF
:104D90000F901F9018951F920F920FB60F9211242B
:104DA0000BB60F922F933F934F935F936F937F9325
:104DB0008F939F93AF93BF93EF93FF93E091B202D2
:104DC000F091B3021995FF91EF91BF91AF919F912F
:104DD0008F917F916F915F914F913F912F910F90A4
:104DE0000BBE0F900FBE0F901F9018951F920F9241
:104DF0000FB60F9211240BB60F922F933F934F9340
:104E00005F936F937F938F939F93AF93BF93EF9332
:104E1000FF93E091B402F091B5021995FF91EF91E3
:104E2000BF91AF919F918F917F916F915F914F91C2
:104E30003F912F910F900BBE0F900FBE0F901F90C0
:104E400018951F920F920FB60F9211240BB60F9266
:104E50002F933F934F935F936F937F938F939F9382
:104E6000AF93BF93EF93FF93E091BE02F091BF0227
:104E70001995FF91EF91BF91AF919F918F917F9184
:104E80006F915F914F913F912F910F900BBE0F90BB
:104E90000FBE0F901F9018951F920F920FB60F9292
:104EA00011240BB60F922F933F934F935F936F9301
:104EB0007F938F939F93AF93BF93EF93FF93E09173
:104EC000C002F091C1021995FF91EF91BF91AF918E
:104ED0009F918F917F916F915F914F913F912F9112
:104EE0000F900BBE0F900FBE0F901F9018951F9242
:104EF0000F920FB60F9211242F933F938F939F938E
:104F0000AF93BF938091E6059091E705A091E805E6
:104F1000B091E9053091E50523E0230F2D3758F5D1
:104F20000196A11DB11D2093E5058093E6059093A0
:104F3000E705A093E805B093E9058091EA05909113
:104F4000EB05A091EC05B091ED050196A11DB11DF9
:104F50008093EA059093EB05A093EC05B093ED05E3
:104F6000BF91AF919F918F913F912F910F900FBE65
:104F70000F901F90189526E8230F0296A11DB11DD2
:104F8000D2CF3FB7F8948091EA059091EB05A091BC
:104F9000EC05B091ED0526B5A89B05C02F3F19F093
:104FA0000196A11DB11D3FBFBA2FA92F982F8827A9
:104FB000BC01CD01620F711D811D911D42E0660F84
:104FC000771F881F991F4A95D1F708958F929F9256
:104FD000AF92BF92CF92DF92EF92FF926B017C0172
:104FE000D0DF4B015C01C114D104E104F104D9F01C
:104FF000D7D5C7DF681979098A099B09683E7340CC
:105000008105910580F321E0C21AD108E108F10879
:1050100088EE880E83E0981EA11CB11CC114D10437
:10502000E104F10431F7FF90EF90DF90CF90BF9053
:10503000AF909F908F900895789484B5826084BDDE
:1050400084B5816084BD85B5826085BD85B581608C
:1050500085BDEEE6F0E0808181608083E1E8F0E0EC
:105060001082808182608083808181608083E0E81B
:10507000F0E0808181608083E1EBF0E080818460FA
:105080008083E0EBF0E0808181608083E1E9F0E003
:10509000808182608083808181608083E0E9F0E0AC
:1050A000808181608083E1EAF0E08081826080839A
:1050B000808181608083E0EAF0E08081816080838C
:1050C000E1E2F1E080818260808380818160808381
:1050D000E0E2F1E0808181608083EAE7F0E08081B6
:1050E000846080838081826080838081816080830E
:1050F0008081806880831092C10008951F93CF93B0
:10510000DF93182FEB0161E033D1209731F460E099
:10511000812FDF91CF911F9167C1CF3FD10511F44E
:1051200061E0F6CFE12FF0E0EC51FE4FE491E15069
:10513000E23108F0B2C0F0E08827EF55F74D8F4F0D
:1051400065C5B328BB28C028CA28D4284D29DE2825
:10515000E628EE28F82802290C291B2925294D29A3
:105160002F293929432984B5806884BDC7BDDF91C3
:10517000CF911F91089584B5806284BDC8BDF7CFDB
:1051800080918000806880938000D0938900C093D4
:105190008800EDCF80918000806280938000D09362
:1051A0008B00C0938A00E3CF809180008860809359
:1051B0008000D0938D00C0938C00D9CF8091B00037
:1051C00080688093B000C093B300D1CF8091B000CD
:1051D00080628093B000C093B400C9CF80919000EA
:1051E000806880939000D0939900C0939800BFCFBF
:1051F00080919000806280939000D0939B00C09338
:105200009A00B5CF80919000886080939000D093F1
:105210009D00C0939C00ABCF8091A00080688093DC
:10522000A0008091A0008F7B8093A000D093A90064
:10523000C093A8009CCF8091A00080628093A000C2
:10524000D093AB00C093AA0092CF8091A000886059
:105250008093A000D093AD00C093AC0088CF809124
:105260002001806880932001D0932901C0932801F8
:105270007ECF80912001806280932001D0932B010A
:10528000C0932A0174CF809120018860809320010F
:10529000D0932D01C0932C016ACFC038D1050CF0FA
:1052A0003FCF35CF8150823108F059C0E82FF0E070
:1052B0008827E35AF64D8F4FA9C47D2981296F298C
:1052C00075297929AF2984298A298E299429982931
:1052D0009C29A229A629AF29AA29B029B4298091FD
:1052E00080008F77809380000895809180008F7D6B
:1052F000F9CF80918000877FF5CF84B58F7784BD0B
:10530000089584B58F7DFBCF8091B0008F77809317
:10531000B00008958091B0008F7DF9CF809190000A
:105320008F77809390000895809190008F7DF9CFC2
:1053300080919000877FF5CF8091A0008F77809338
:10534000A00008958091A0008F7DF9CF8091A000EA
:10535000877FF5CF809120018F778093200108957A
:10536000809120018F7DF9CF80912001877FF5CF3B
:10537000CF93DF9390E0FC01E65DFD4F24918059CF
:105380009D4FFC0184918823C9F090E0880F991FFC
:10539000FC01E651FD4FA591B491FC01E053FD4F96
:1053A000C591D49161110DC09FB7F8948C9120954F
:1053B00082238C938881282328839FBFDF91CF91FC
:1053C0000895623051F49FB7F8943C91822F8095F4
:1053D00083238C93E8812E2BEFCF8FB7F894EC9139
:1053E0002E2B2C938FBFEACF1F93CF93DF93282FC1
:1053F00030E0F901EC51FE4F8491F901E65DFD4F7B
:10540000D491F901E059FD4FC491CC23A1F0162F9E
:10541000811148DFEC2FF0E0EE0FFF1FE053FD4F4E
:10542000A591B4918FB7F894EC91111108C0D09563
:10543000DE23DC938FBFDF91CF911F910895DE2B88
:10544000F8CFCF93DF93282F30E0F901EC51FE4FD6
:105450008491F901E65DFD4FD491F901E059FD4FCA
:10546000C491CC2399F081111DDFEC2FF0E0EE0FF9
:10547000FF1FEA54FD4FA591B491EC91ED2381E01B
:1054800090E009F480E0DF91CF91089580E090E012
:10549000FACFFC01918D228D892F90E0805C9F4F87
:1054A000821B91098F7399270895FC01918D828D3C
:1054B000981731F0828DE80FF11D858D90E00895E9
:1054C0008FEF9FEF0895FC01918D828D981761F009
:1054D000A28DAE0FBF2FB11D5D968C91928D9F5FF7
:1054E0009F73928F90E008958FEF9FEF0895FC01D6
:1054F000538D448D252F30E0842F90E0821B930B39
:10550000541710F0CF96089501970895FC01A48DCB
:10551000A80FB92FB11DA35ABF4F2C91848D90E0D5
:1055200001968F739927848FA689B7892C93A089B8
:10553000B1898C91837080648C93938D848D981342
:1055400006C00288F389E02D80818F7D80830895D5
:10555000CF93DF93EC01888D8823B1F0AA89BB89B2
:10556000E889F9898C9185FD03C0808186FD0CC096
:105570000FB607FCF7CF8C9185FFF2CF808185FFB6
:10558000EDCFCE01C3DFEACFDF91CF910895EF9247
:10559000FF920F931F93CF93DF93EC0181E0888FED
:1055A0009B8D8C8D98131AC0E889F989808185FFBD
:1055B00015C09FB7F894EE89FF896083E889F9895F
:1055C00080818370806480839FBF81E090E0DF9161
:1055D000CF911F910F91FF90EF900895F62E0B8DB4
:1055E00010E00F5F1F4F0F731127E02E8C8D8E116F
:1055F0000BC00FB607FCFACFE889F989808185FFD7
:10560000F5CFCE0183DFF2CFEB8DEC0FFD2FF11D37
:10561000E35AFF4FF0829FB7F8940B8FEA89FB891A
:1056200080818062D0CFCF92DF92EF92FF921F9362
:10563000CF93DF93EC016A017B01122FE889F9898E
:1056400082E08083C11481EED806E104F10499F070
:1056500060E079E08DE390E0A7019601B5D221509A
:1056600031094109510956954795379527952115D7
:1056700080E1380790F0E889F989108260E874E8E1
:105680008EE190E0A70196019FD221503109410996
:1056900051095695479537952795EC85FD853083BB
:1056A000EE85FF852083188EEC89FD891083EA89B9
:1056B000FB89808180618083EA89FB8980818860A1
:1056C0008083EA89FB89808180688083EA89FB89FD
:1056D00080818F7D8083DF91CF911F91FF90EF902C
:1056E000DF90CF9008951F920F920FB60F92112462
:1056F0000BB60F922F938F939F93EF93FF93E091AD
:10570000FE05F091FF058081E0910406F091050609
:1057100082FD1DC09081809107068F5F8F7320915D
:105720000806821741F0E0910706F0E0E251FA4FD7
:10573000958F80930706FF91EF919F918F912F9105
:105740000F900BBE0F900FBE0F901F901895808189
:10575000F2CF1F920F920FB60F9211240BB60F9239
:105760002F933F934F935F936F937F938F939F9369
:10577000AF93BF93EF93FF938EEE95E0C7DEFF915B
:10578000EF91BF91AF919F918F917F916F915F91B9
:105790004F913F912F910F900BBE0F900FBE0F9026
:1057A0001F901895EEEEF5E01382128288EE93E0DA
:1057B000A0E0B0E084839583A683B7838FEB94E069
:1057C0009183808385EC90E09587848784EC90E0DA
:1057D0009787868780EC90E0918B808B81EC90E0BE
:1057E000938B828B82EC90E0958B848B86EC90E09F
:1057F000978B868B118E128E138E148E08951F92A6
:105800000F920FB60F9211240BB60F922F938F9316
:105810009F93EF93FF93E0919B06F0919C0680810C
:10582000E091A106F091A20682FD1DC090818091B9
:10583000A4068F5F8F732091A506821741F0E09137
:10584000A406F0E0E557F94F958F8093A406FF91E9
:10585000EF919F918F912F910F900BBE0F900FBEE4
:105860000F901F9018958081F2CF1F920F920FB664
:105870000F9211240BB60F922F933F934F935F9388
:105880006F937F938F939F93AF93BF93EF93FF9308
:105890008BE896E03BDEFF91EF91BF91AF919F9136
:1058A0008F917F916F915F914F913F912F910F90C9
:1058B0000BBE0F900FBE0F901F901895EBE8F6E00F
:1058C0001382128288EE93E0A0E0B0E08483958397
:1058D000A683B7838FEB94E0918380838DEC90E077
:1058E000958784878CEC90E09787868788EC90E09A
:1058F000918B808B89EC90E0938B828B8AEC90E08B
:10590000958B848B8EEC90E0978B868B118E128E0C
:10591000138E148E08951F920F920FB60F921124BA
:105920000BB60F922F938F939F93EF93FF93E0917A
:105930003807F09139078081E0913E07F0913F07E9
:1059400082FD1DC09081809141078F5F8F732091F0
:105950004207821741F0E0914107F0E0E85DF84F1F
:10596000958F80934107FF91EF919F918F912F9198
:105970000F900BBE0F900FBE0F901F901895808157
:10598000F2CF1F920F920FB60F9211240BB60F9207
:105990002F933F934F935F936F937F938F939F9337
:1059A000AF93BF93EF93FF9388E297E0AFDDFF9152
:1059B000EF91BF91AF919F918F917F916F915F9187
:1059C0004F913F912F910F900BBE0F900FBE0F90F4
:1059D0001F901895E8E2F7E01382128288EE93E0B8
:1059E000A0E0B0E084839583A683B7838FEB94E037
:1059F0009183808385ED90E09587848784ED90E0A6
:105A00009787868780ED90E0918B808B81ED90E089
:105A1000938B828B82ED90E0958B848B86ED90E06A
:105A2000978B868B118E128E138E148E08951F9273
:105A30000F920FB60F9211240BB60F922F938F93E4
:105A40009F93EF93FF93E091D507F091D607808164
:105A5000E091DB07F091DC0782FD1DC09081809111
:105A6000DE078F5F8F732091DF07821741F0E0918F
:105A7000DE07F0E0EB53F84F958F8093DE07FF9140
:105A8000EF919F918F912F910F900BBE0F900FBEB2
:105A90000F901F9018958081F2CF1F920F920FB632
:105AA0000F9211240BB60F922F933F934F935F9356
:105AB0006F937F938F939F93AF93BF93EF93FF93D6
:105AC00085EC97E023DDFF91EF91BF91AF919F911E
:105AD0008F917F916F915F914F913F912F910F9097
